:020000040800F2
:1000000018170020D50000089D3C00082F36000876
:1000100000000000000000000000000000000000E0
:10002000000000000000000000000000FF000008C9
:10003000000000000000000001010008CB4900089A
:100040000501000805010008050100080501000878
:10005000050100082D0B0008050100080501000836
:100060000501000805010008890A000805010008CB
:100070000501000805010008050100080501000848
:100080000501000800000000000000000501000854
:100090000000000005010008B14A00080501000841
:1000A000000000003944000805010008CD51000897
:1000B000050100080000000005010008995D000826
:1000C0000348854600F0ECF90048004791670008B6
:1000D000181700200C4880F308880C480168090EA6
:1000E0000B4A914205D10B480B4901600B480C4962
:1000F00001600C4880470C480047FEE7FEE7FEE73A
:10010000FEE7FEE7FEE700001817002004000000ED
:100110001F00000018100240010000000000014014
:1001200000000000554A0008C100000830B50B4629
:10013000014600202022012409E00D46D5409D42C1
:1001400005D31D469540491B254695404019154647
:10015000521E002DF1DC30BD0321001D401E03782E
:1001600012021A43491EF9D510467047F8B50246E7
:100170004A40D40F42004B0052085B089A4202D218
:100180000246084611464A0023D0C30D4A00DDB29C
:10019000120EAD1A202D35DA49020126490AF6055C
:1001A0008A19002C00D0524220214F1B1146B94021
:1001B0002A411018C20D9A4221D0002C17D0012DCF
:1001C00008DCDA05801AD20F8019D207DBB200F002
:1001D00001F9F8BDDA05801A012340001B06C0189A
:1001E00080185A428018CA0F1043490007E0490896
:1001F000C2071143DA05801A80194008801800F000
:10020000E1F8F8BD61000122511A001BF7E7012255
:10021000D2075140AAE70122D2075040A6E7024682
:1002200070B54A40D30FDB0740002DD04A002AD0DA
:10023000010E140E000212020919400A520A841813
:10024000E50104465443000A120A2E045043A4193F
:100250004219200CC543AA18120C0125AD03521CEB
:10026000521912047F39240400D0521C104301D4C7
:100270004000491EC2B20C06C0092018401C4008AC
:10028000802A02D003E0002070BD40084000002911
:1002900000DA0020184370BD70B502464A40D50F01
:1002A00040004A00ED0740085208002814D0002AF8
:1002B00012D0C40DD30D41020120C0055202490ADB
:1002C000520AE41A091812187D34914201D3641CB1
:1002D00000E04900002C01DA002070BD00239142AB
:1002E00001D3891A0343400849000028F7D10029A7
:1002F0000AD0914202D10121C90705E0914201D201
:10030000012101E00121C943E005C018401900F0B6
:1003100059F870BD420005D04200120E52428A4286
:1003200001DB00207047C90508187047C217C10FCC
:10033000504010B54018CA079623002100F04AF833
:1003400010BDC20F410040020123400ADB05D20765
:10035000090EC0187F2901DA00207047962903DCB6
:100360009623591AC84001E096398840002AF4D0F3
:1003700040427047410040020122400AD205090E66
:1003800080187F2901DA00207047962903DC962225
:10039000511AC84070479639884070470122D207E9
:1003A000002800DB101A002900DB511A8142704737
:1003B0000122D207002800DB101A002900DB511AA5
:1003C00088427047002904DA401C490001D14008E6
:1003D0004000704770B40024050C05D110240004BF
:1003E00002D1002921D01124050E01D100020834C8
:1003F000050F01D10001241D850F01D18000A41C2F
:10040000002801DB4000641C002908D020252E1B99
:100410000D46F540A14000D00121294308430106C3
:100420001B1B000ADB1D02D5002070BC7047DB05DA
:10043000181880180029F8DA401C4900F5D170BC62
:1004400040084000704770B5002801DC002070BDF6
:10045000410040020126400AF605090E8019CA072C
:1004600001D14000491E4D10002211463F35334650
:10047000CB409B18D418844201D8001B1A46400078
:10048000491C1729F3DD5100814202D20021C943E2
:1004900000E00021E8058018FFF794FF70BD000020
:1004A000064C0125064E05E0E36807CC2B430C3CC7
:1004B00098471034B442F7D3FFF706FEE46900080A
:1004C000046A000870B58C180578401C6B075B0F38
:1004D00001D10378401C2A1106D10278401C03E0A8
:1004E00006780E70401C491C5B1EF9D12B0705D401
:1004F0000023521E0DD40B70491CFAE70378401CF0
:10050000CB1A921C03E01D780D70491C5B1C521E17
:10051000F9D5A142D8D3002070BD0000F0B5BE4C83
:1005200010208DB0205EFFF701FFBC4D2946FFF77C
:10053000B3FEBB49FFF773FE06461220205EFFF7AD
:10054000F5FE2946FFF7A8FEB549FFF768FE074606
:100550001420205EFFF7EAFE2946FFF79DFEB04912
:10056000FFF75DFE00900A20205EFFF7DFFE0B25FF
:10057000ED432946FFF7CEFE06900C20205EFFF7E4
:10058000D5FE2946FFF7C6FE05900E20205EFFF738
:10059000CDFE2946FFF7BEFE0546002009900790D4
:1005A0000890A06B002802DDA06B401EA0632846C7
:1005B00006F0C4F90390059806F0C0F90B90069870
:1005C00006F0BCF90B99FFF7D1FD0399FFF7CEFDBB
:1005D000944988425CDDA16B052959DC06F0CEF810
:1005E000014603900698FFF71AFE069003990598B6
:1005F000FFF715FE059028460399FFF710FE8A4D78
:100600000490E969FFF70BFE0390296A0598FFF74C
:1006100006FE0399FFF7FBFD0999FFF7A7FD099077
:10062000296A0698FFF7FBFD0390A9690498FFF774
:10063000F6FD0399FFF7EBFD0799FFF797FD07908C
:10064000A9690598FFF7EBFD0490E9690698FFF7A3
:10065000E6FD0499FFF7DBFD0899FFF787FD0546E6
:100660000999E06BFFF7DBFD3146FFF77FFD06469A
:100670000799E06BFFF7D3FD3946FFF777FD074693
:100680002946E06BFFF7CBFD0099FFF76FFD009067
:10069000664D30462946FFF7C2FD0290294638468E
:1006A000FFF7BDFD019029460098FFF7B8FD0090C7
:1006B000276C656CA66C0146E06CFFF7B0FD0790F7
:1006C00030460199FFF7ABFD089001212846C90784
:1006D00048400299FFF7A3FD0899FFF798FD079995
:1006E000FFF795FD216CFFF741FD20640199E06C57
:1006F000FFF795FD089030460099FFF790FD0790B1
:1007000038460299FFF78BFD0799FFF72FFD0899EF
:10071000FFF77DFD616CFFF729FD60640299E06CD5
:10072000FFF77DFD079028460099FFF778FD0890B8
:1007300038460199FFF773FD0899FFF768FD07999F
:10074000FFF714FDA16CFFF711FDA064304602997C
:10075000FFF765FD064628460199FFF760FD05464F
:1007600038460099FFF75BFD2946FFF7FFFC31464D
:10077000FFF74DFDE16CFFF7F9FCE064E06C06F07B
:10078000DDF80746A06C06F0D9F80646606C06F066
:10079000D5F80546206C06F0D1F82946FFF7E6FCAF
:1007A0003146FFF7E3FC3946FFF7E0FC05F0E6FFD2
:1007B00005460146206CFFF732FD20642946606C37
:1007C000FFF72DFD60642946A06CFFF728FDA064AB
:1007D0002946E06CFFF723FDE06405F035FF124D7C
:1007E000296AE86905F0B8FB1149FFF718FDFFF722
:1007F000A8FDE085A8690121C907484005F026FB4E
:100800000C49FFF704FD0C49FFF709FDFFF799FDBF
:1008100020860DB0F0BD000050000020333383412E
:1008200035FA8E3C0AD7233CE40F00206F12833A3E
:100830004C3D0FC4DB0FC93F4C3D0F44F8B5044697
:10084000C0680F46A0602069E06060680121FFF782
:1008500061FD3946FFF78AFC2168FFF787FC0646F1
:10086000A0680C49FFF7DBFC0546E0680A49FFF782
:10087000D6FC2946FFF77AFC054608493046FFF7C3
:10088000CEFC2946FFF7C3FC2061606820606760EA
:100890002069F8BD8F0F773F7273FB3F9D7D7B3FD3
:1008A00070B50C46042828DD154D202802D02128DB
:1008B00023D111E00846FFF74FFCE1780002000A5F
:1008C0000906084328602079287160796871A07949
:1008D000A87100F085F810E0287820702888000AB8
:1008E00060702868000CA0702868000EE0702879FD
:1008F000207168796071A8798871002070BD00004E
:100900003800002010B5024802F0ACFC002010BDF9
:100910006C12002070B518481649016000248460EC
:10092000E121C4604902046141608461C4610462E0
:100930000C214462416102F021FD002202211B20B2
:1009400000F098FE1B2000F08BFE0C4D00222C8046
:100950006C800B490B4804F02AFD0B49094804F050
:100960001CFD0748298801224118034802F09AFD1E
:10097000002070BD003801406C12002034000020BF
:10098000640D0020C0080020E40A002070B5044671
:100990000D4609200821C00600F00DFC28882146DC
:1009A00082B2024802F0F2FD002070BD6C120020FD
:1009B0000A4610B508498969FF31FF31023149699A
:1009C000002901D0012010BD0146044804F0EFFCCD
:1009D000024804F031FD10BDC00A0020C00800200C
:1009E00010B5254802F03EFC244900240A7922482B
:1009F000002A01D0022A01D0C46002E00122520381
:100A0000C2604A79002A03D0012A03D0022A04D006
:100A1000046105E00322520201E001229202026118
:100A20008A79072A26D0082A24D10269002A21D0EF
:100A3000012212038260124A0260096841608461E7
:100A4000C46104620C21446241610B4802F096FCCF
:100A5000002202211B2000F00DFE1B2000F000FEF2
:100A600006480849001F048044800122024802F021
:100A700019FD10BD8460DEE76C12002038000020F4
:100A800000380140640D002010B5024800F02EF936
:100A900010BD0000DC12002010B5046863604368DC
:100AA000102B036803D099600068C26010BD9A6083
:100AB0000068C16010BD000070B5194C2620205E92
:100AC000FFF734FC174E0021324605F0F1FBFFF72B
:100AD00051FC0125AD0768632820205EFFF726FC46
:100AE0003246002105F0E4FBFFF744FCA863222016
:100AF000205EFFF71BFC3246002105F0D9FBFFF713
:100B000039FC094D68632420205EFFF70FFC324654
:100B1000002105F0CDFBFFF72DFCA86370BD0000A0
:100B20005000002000F015450004004010B50120E1
:100B300000F092FA10BDFEE705480178012901D1C5
:100B4000022101700021017041700121C1707047C4
:100B50005000002070B52C4C00266078E51DF9355A
:100B6000012816D002281DD003283AD004280FD11E
:100B700005F0AEFB686805F061F9244A904204DA9A
:100B8000A86805F05BF9904202DB66700120E07016
:100B900070BD05F0EFFE6E60AE602E60A68502208F
:100BA000607070BD05F0E6FE2E20205EFFF7BEFBF4
:100BB000174E3146FFF733FB05F040F9154DA842BB
:100BC000EFDA3020205EFFF7B1FB3146FFF727FB5D
:100BD00005F034F9A842E4DA032060700E4860633F
:100BE00070BD05F0C7FEA08D401CA085A08D618D55
:100BF0008842F5D3042060707F20C00560630748F9
:100C000028602868A06570BD500000200000B44333
:100C1000CDCCCC3D0000A0413333F33F0000B4C342
:100C2000F0B5002819D001680A68520852000A601D
:100C3000016800270F6001684F6001688F600168DC
:100C4000CF60294C284D284E274902681434283596
:100C50003C368A4203D1022311E00120F0BDA242BA
:100C600001D120230BE0AA4202D101235B0206E05E
:100C7000B24202D101235B0301E001235B041A4A63
:100C8000083A536003688B4201D108230FE0A34266
:100C900001D180230BE0AB4202D10123DB0206E04D
:100CA000B34202D10123DB0301E00123DB045360E3
:100CB00003688B4201D104210FE0A34201D14021FE
:100CC0000BE0AB4202D10121890206E0B34202D11E
:100CD0000121890301E001218904516087632030EB
:100CE000477007700020F0BD08000240F8B50446C8
:100CF00074480168734A734E724F08322068D314E7
:100D00001C363037904201D1082210E0B04201D1A8
:100D100080220CE0B84201D11A4608E0694A443208
:100D2000904202D10122D20301E00122D2042546E1
:100D30001140203500292ED00168C94309072AD463
:100D400001680822914301605E49206808318842A9
:100D500001D1082010E0B04201D180200CE0B8425F
:100D600001D1184608E057494431884202D1012098
:100D7000C00301E00120C00452494860A06B01217A
:100D80000843A0630420687000202870216B0029AC
:100D900001D0204688474B4802684A4920680831FC
:100DA0000B15884201D1042110E0B04201D140214D
:100DB0000CE0B84201D1194608E04249443188426A
:100DC00002D10121890301E0012189040A422BD0CB
:100DD0000168C943490727D40168890603D402681A
:100DE00004218A430260374920680831884201D1D2
:100DF000042010E0B04201D140200CE0B84201D103
:100E0000184608E02F494431884202D1012080036E
:100E100001E0012080042B49486011206870E16ADC
:100E2000002901D0204688472648026825492068C5
:100E30000831884201D1022311E0B04201D12023C0
:100E40000DE0B84202D101235B0208E01D4B4433A0
:100E5000984202D101235B0301E001235B041A42A3
:100E60002ED00268D24392072AD40268920603D495
:100E7000026802239A4302602068884201D102205E
:100E800011E0B04201D120200DE0B84202D1012092
:100E9000400208E00B494431884202D1012040035E
:100EA00001E00120400407494860A06BA0630120D5
:100EB000687000202870A16A002901D02046884768
:100EC000F8BD000000000240F0B5002806D0014641
:100ED00020314A780024002A02D002E00120F0BD2F
:100EE0000C7002224A7005682B680B4A8668134012
:100EF000426807693243C6683E433243466932431B
:100F000086693243C66932431A432A6084630120EA
:100F100048700020F0BD00000FC0FFFFF8B5044688
:100F200020300578012D1ED001250570022646705F
:100F300020680768AF4307602046FFF7ADFD2068D3
:100F40000168314301602068016804221143016097
:100F50002068016808221143016020680168294364
:100F600001600020F8BD0220F8BD31B500F02EF977
:100F7000044600F02BF90099001B8842F9D338BDD4
:100F8000F0B5002353E001229A4014460A404DD0A8
:100F900006685F000325BD40AE43AC460660DD0831
:100FA000AD002D182E6AAE465D07EF0E0F25BD4031
:100FB000AE4375462E6286686546AE4386604568D8
:100FC000A5434560C4686546AC43C4609D081A4C9F
:100FD000AD002D19AF689C07260F0F24B440A4461E
:100FE0003C400927FF06B84201D100270AE0134F11
:100FF000B84201D1012705E0114FB84201D10227C3
:1010000000E00527B740A74210D1AE686446A6436A
:10101000AE600C4C25689543256065689543656016
:10102000A5689543A560E5689543E5605B1C0A46A5
:10103000DA40A8D1F0BD00000000014000040048E3
:101040000008004800040140012801D101498870CE
:10105000704700005000002010B504494A69024260
:1010600002D04861FFF7F0FF10BD0000000401400E
:10107000F8B5002389E001249C402A46A44622407A
:101080007ED04C68022C01D0122C0CD1DC08A400BC
:1010900027183C6A5D07ED0E0F26AE40B4430E697B
:1010A000AE4026433E6205685E000324B4400F79DB
:1010B000A543BF07BF0FB7402F4307604D68012D01
:1010C00005D0022D03D0112D01D0122D0ED185682F
:1010D000CF68A543B7402F43876047686546AF4355
:1010E0000D79ED06ED0F9D403D434560C568A54374
:1010F0008C68B4402C43C4604C68E40044D5264C52
:10110000A56901263543A561A4699D083440009472
:10111000224CAD002F19BC689D072E0F0F25B5403E
:10112000AC430925ED06A84201D100250AE01C4D7B
:10113000A84201D1012505E01A4DA84201D102259E
:1011400000E00525B5402543BD60174C25684E6875
:101150009543F60300D51543256065684E689543B1
:10116000B60300D515436560A5684E689543F60241
:1011700000D51543A560E5684E689543B60200E0CA
:1011800002E000D51543E5605B1C0A681546DA40AD
:1011900000D070E7F8BD00000010024000000140E0
:1011A00000040048000800480004014000690840AD
:1011B00000D00120704742694A4042617047002ACE
:1011C00001D081617047816270470000014800686A
:1011D000704700007802002070B502464032537814
:1011E000202B1CD11378012B19D001231370242438
:1011F0005470046825689D432560046825681E03B3
:10120000B5432560046825680D43256000680168C2
:1012100019430160202050700020107070BD022022
:1012200070BD000070B5040006D0254640356878D2
:101230000026002802D005E0012070BD2E70204657
:1012400000F09AF924206870206801684908490074
:1012500001600F21606809068843216808612068E1
:1012600082680121C9038A438260A068002807D0F0
:10127000E268012A01D0212189020843216888609F
:10128000E068022802D12168800248602068416835
:101290000D4A11434160616920690843A16909024F
:1012A00008432168C860216AE06908432168086032
:1012B0002068016801221143016066642020687083
:1012C0002663AE70002070BD00800002FFB50546A9
:1012D00004464035687883B0202873D10C980028E4
:1012E00071D00D9800286ED0287801286AD001208E
:1012F0002870FFF76BFF0746012200901923D103E6
:10130000204602F05DFA002876D122206870402045
:10131000A870002666640C9860620D98608566630C
:101320000E980090019704A90EC9204602F0CCF94E
:10133000002804D0606C2E70042860D05CE0618DC1
:1013400009208002FF2905D9FF22228501231B06DF
:10135000009006E0618D21850090208D0123C2B2AE
:101360005B062046049902F019FA00970022042136
:1013700020460E9B02F024FA00283DD12068416AE5
:10138000606A421C62620170208D401E81B221851C
:10139000608D401E6085002921D1608D00281ED0FF
:1013A00000970022802120460E9B02F009FA0028B7
:1013B00022D1608DFF2807D9FF22228501231B0639
:1013C000009608E02AE01AE0608D20850096208DC6
:1013D0000123C2B25B062046049902F0DFF9608D5A
:1013E0000028C2D13A4620460E9902F00DFA002894
:1013F00007D0606C042802D0032007B0F0BD0120A4
:10140000FBE721682020C86121684A68044B1A4024
:101410004A606870AE702E700020EEE70220ECE7A4
:1014200000E800FEFFB5054604464035687883B005
:10143000202876D10C98002874D00D98002871D0FF
:10144000287801286DD001202870FFF7BFFE0746DD
:10145000012200901923D103204602F0B1F900289F
:1014600053D1212068704020A870002666640C9833
:1014700060620D98608566630E980090019704A9DC
:101480000EC9204602F055F9002804D0606C2E7079
:1014900004286AD039E0608DFF2805D9FF22228513
:1014A00001231B06009606E0608D20850096208DA6
:1014B0000123C2B25B062046049902F06FF93A4656
:1014C00020460E9902F0C7F9002803D0606C04286A
:1014D0004BD01AE0606A411C616221680078886222
:1014E000608D401E6085208D401E0004000C20850C
:1014F00024D1608D002821D0009700228021204631
:101500000E9B02F05DF9002802D0032007B0F0BD69
:10151000608DFF2807D9FF22228501231B06009634
:1015200008E024E021E0608D20850096208D0123D5
:10153000C2B25B062046049902F030F9608D0028A3
:10154000BDD13A4620460E9902F05EF90028BDD181
:1015500020682021C16120684268064B1A40426021
:101560006970AE702E700020D0E70120CEE7022017
:10157000CCE7000000E800FE00B500680D4987B028
:10158000884214D11221019103200121009002917F
:101590000491039069460848FFF76AFD0748C2694D
:1015A000012149050A43C261C0690840059007B09E
:1015B00000BD00000054004000140048001002402C
:1015C00002480168491C0160704700007802002051
:1015D00010B506480168102211430160002000F098
:1015E00007F800F017F8002010BD000000200240AE
:1015F00010B5044600F010FF7D21C900FEF796FDEE
:1016000001F0E0FB00222146501E00F033F80020DC
:1016100010BD000008B50C488169012211438161A9
:1016200080691040002200901146501F00F022F8FF
:1016300000221146901E00F01DF800221146501E97
:1016400000F018F808BD000000100240C106C90EE5
:1016500001208840014908607047000080E100E0F7
:10166000C106C90E0120884001490860704700008A
:1016700000E100E010B502F013FB10BD10B50C0640
:1016800006D54906490E1C2461430818283004E099
:101690001C2461430818FF30093099B2002A06D093
:1016A00001228272C180190C0181002010BD00222C
:1016B00082728180F9E71C224A43121810B5FF306C
:1016C000FF300230926BC06904F04FF810BD1C224D
:1016D0004A43121810B5FF30FF32FF30013202309A
:1016E0009269C06904F09CF810BD0000F0B54A068C
:1016F000520E13461C256A43CC091218002C01D047
:10170000283201E0FF32093204461370C909FF3460
:101710005170E134217A01293DD001212172957A5D
:10172000494B002D4949557837D0002D056816786A
:10173000AC465BD0B600AD5B6F0404D5444F0D40A2
:101740003D436746BD5305681678AC46B600AD5BB1
:101750006F0605D53C4F0D4040373D436746BD53AE
:1017600015780668AF00F55B0D4039490D43F55318
:10177000364F117830373D40066889001D43755259
:101780001178334A00688900F13A15401D434552EB
:1017900000202072F0BD0220F0BD002D05681678F3
:1017A000AC4610D0B600AD5B6F0605D50D4026499E
:1017B00040310D4361468D5305681078234A8100FE
:1017C000685A30320EE0B600AD5B6F0404D50D40B0
:1017D0001F490D4361468D53056810781C4A8100EE
:1017E000685AF13A104018436852D1E7B600AD5B31
:1017F0006F0404D5164F0D403D436746BD53056841
:101800001678AC46B600AD5B6F0605D50E4F0D40A1
:1018100040373D436746BD5315780768AE00BD5B52
:101820000D40094940310D43BD53094F1678F13F32
:101830003D400168B6001D438D531178034A89006D
:1018400000683032A1E70000808000008F8F000028
:1018500080C00000F0B54B06CA095B0E002A04D018
:101860001C225A431218283204E01C224A43121840
:10187000FF3209320024947013700346C909FF3304
:101880005170E133197A01291AD001211972517866
:101890001A4C00291178066814D08D00715B4F0630
:1018A00003D52140164C21437153117800688A00FA
:1018B000124C815A3034214010246140202414E01D
:1018C0000220F0BD8D00715B4F0403D521400D4C0B
:1018D00021437153117800688A000A4C815AF13C07
:1018E000214001242403614064006140044C403CD9
:1018F0002143815200201872F0BD00008F8F00003C
:10190000C080000080C000004906490E1C225143DF
:101910000818FF300130008C80B27047F0B54D06DA
:101920006D0E2E461C246543CF092C18002F01D0C4
:10193000283401E0FF3409342670C909617001467A
:10194000FF31E260E131E3708C46097A01290DD064
:10195000012261460A72E2789349002A08D0012ADE
:1019600020D0022A0DD0032A25D111E00220F0BD9B
:10197000237802689B00D55A0D40FF35FF350235AC
:1019800004E0237802689B00D55A0D40D55212E03E
:101990002278036892009D5A0D400321490269187C
:1019A000995208E0237802689B00D55A0D40012126
:1019B00089026918D15226780768B5007B5B7B499C
:1019C0007B4A0B40134333437B53A57A002D53D0FE
:1019D0002578784E0B400768AD0033437B53E3888E
:1019E00050265D0803686D00F65AF6182378DF006C
:1019F00001239B02FB18F552238950265D080368DA
:101A00006D00F65AF6182378DF005311FB18F552D3
:101A100063780768002B237875D09D007B5B5E049C
:101A200003D5654E0B4033437B53237807689D00F5
:101A30007B5B5E0604D55E4E0B40403633437B53E2
:101A4000237805689E00AB5B0B405B490B43AB53AF
:101A5000564E2178303633400568890013436B5267
:101A60002178554C00688900F13C234013434352D0
:101A7000002061460872F0BD6378002BA3881FD058
:101A80005D0803685026F65A6D00F6182378DF00CB
:101A900001239B02FB18F552237807689D007B5BAE
:101AA0005E0604D50B40424940310B437B5301682D
:101AB00020783E4C8300C85A30342040202440E037
:101AC0005D0803685026F65A6D00F6182378DF008B
:101AD0003A4BFB18F55203685025ED5A374EEB1878
:101AE0002578B61CED00AD195E19E3683E2B0BD9C5
:101AF000DD022D0CDB0601D16D1EADB2AB0201255E
:101B0000ED032B4307E020E0DD032D0CDB0701D0C4
:101B10006D1CADB2AB023380237807689D007B5B00
:101B20005E0403D50B4024490B437B5301682078A6
:101B3000214C8300C85AF13C20400124240360401A
:101B4000640060401043C85292E79D007B5B5E04D6
:101B500003D5194E0B4033437B53237807689D0010
:101B60007B5B5E0604D5124E0B40403633437B53FD
:101B7000237805689E00AB5B0B400D4940310B4359
:101B8000AB530D4E2178F13E3340012636037340AE
:101B9000760073400568890013436B522178034C2B
:101BA00089000068303460E78F8900008F8F000063
:101BB000808000008081000080C0000004040000DC
:101BC000F0B54906490E1C244C432418FF3409344F
:101BD000636122610022A26103466270FF332170BB
:101BE000E133197A012908D0012119726569E16888
:101BF0008D4204D96D1A656103E00220F0BD2946CB
:101C00006261A57A002D05D06578002D19D0012DCF
:101C100037D05AE005685026765B76192578EF00B4
:101C2000324D7D1976193E293ED9CD022D0CC906BB
:101C300037D0A9020125ED03294300E0A902318034
:101C400043E005685026765B76192578EF00274D2E
:101C50002D1F7D1976193E290AD9CD022D0CCF06EC
:101C600001D16D1EADB2AD020127FF033D4306E079
:101C7000CD032D0CCF0701D06D1CADB2AD02358068
:101C800009E005685026765B76192578EF00174D38
:101C90002D1F7D1971536578002DBBD0012D0AD001
:101CA00013E06D1EADB2C4E7CD032D0CC907C5D03E
:101CB0006D1CADB2C2E705685026765B76192578B3
:101CC000EF000A4D2D1F7D197153217800688C009B
:101CD000015B074D294001252D0369406D006940D6
:101CE000044D294301531A720020F0BD0604000080
:101CF0008FBF000080800000F0B50246FF32E13265
:101D0000137A012B0BD001244F06CB097F0E1472DE
:101D1000002B06D01C237B431B18283306E002202F
:101D2000F0BD1C234B431B18FF3309339C701F70FD
:101D3000CE095E70012424031025114B002F0BD017
:101D40004906C90D002E10D004680E4E605A30406E
:101D500068401843605210E001680B4E088830401C
:101D6000604068401843088007E00568064E685ADE
:101D7000303E304060401843685200201072F0BD81
:101D800080800000BF8F0000BFBF0000F0B5064696
:101D90004806400E1C2141438D19EB630021AA63C4
:101DA00029640121283537466970FF372870E137EB
:101DB000387A012806D03972EC686869A04203D9E4
:101DC000001B03E00220F0BD044600206861A87AF1
:101DD00000280CD0297830688A00825C53064A4A71
:101DE0006B7839D5002B12D0012B2CD032E0A3B266
:101DF000AA882969306802F020F930685021095A10
:101E000009182878C200414810180C526AE0502383
:101E10001B5AC90018183D4B1B1DC91841183E2CF0
:101E200008D9E002000CE30601D1401E80B2800216
:101E3000104306E0E003000CE20701D0401C80B232
:101E40008002088006E05022125A1018CA002F495A
:101E5000511844522A8927E0002B02D0012B1BD0B5
:101E600021E050231B5A1818CB0028495918411853
:101E70003E2C08D9E002000CE30601D1401E80B2DE
:101E80008002104306E0E003000CE20701D0401C92
:101E900080B28002088006E05022125A1018CA0050
:101EA0001A4951184452EA88A3B22969306802F0ED
:101EB000C4F86878164A002802D001280AD011E038
:101EC000297830688900435A13400F4AC0321343BF
:101ED000435207E02878316880000B5A13400D4ABE
:101EE00013430B52287831688200094B885A3033EB
:101EF00018401023584020235840034B8033184388
:101F0000885200203872F0BD0080000002040000FA
:101F10008F8F000080C0000070B50446006840301C
:101F20008088C00B02D0204601F0DCFE20684030E3
:101F3000818849050AD58188334A1140818020462D
:101F400000F0D2F80021204600F0F8F82068403078
:101F50008188490403D581882C4A114081802068FA
:101F600040308188890403D58188294A11408180C5
:101F70002068403081880425C904002910DA0188CE
:101F8000A9430180BD20216800024031088020461D
:101F900000F0B6F82068403081881E4A11408180E8
:101FA000206840308188090517D581881A4A114078
:101FB0008180206840300188082211430180206818
:101FC0004030018829430180206840308088C04328
:101FD000C00402D5204600F0DBF82068403081883C
:101FE000890506D581880D4A11408180204600F080
:101FF0009DF8206840308188C90503D58188084A4A
:102000001140818070BD0000FFFB0000FFBF000099
:10201000FFDF0000FFEF0000FFF70000FFFD000002
:10202000FFFE0000F8B500270446002807D026462A
:10203000FF36E136707A0025002802D005E0012045
:10204000F8BD3572204600F03BF803207072012184
:102050000BE01C20784302191046203041720772B1
:10206000C572556395637F1CD5636068B842F0D82C
:1020700000200BE01C2242431219FF32013255723C
:102080001072D57255619561401CD56162688242BB
:10209000F0D82068403001802068403005802068FA
:1020A00040308580206840300582BF2022680002D1
:1020B000403210802034257171720020F8BD00007C
:1020C00008B500680649884208D10648C26901215E
:1020D000C9050A43C261C0690840009008BD0000FC
:1020E000005C00400010024010B5C41DFF34FA34FB
:1020F0000121E06903F079FCE06903F03EFC10BDCA
:1021000010B504468069002806D0074801690622F8
:102110009143016102F060FCFF34FF340234E06956
:1021200003F04EFC10BD000000ED00E0FF3010B5E4
:10213000FF300230C06903F049FC10BD0246FF3297
:10214000E132137A012B08D001231372002906D043
:102150002030017100201072704702207047006823
:10216000802140308181F5E710B5872189000A5828
:102170000146FF31ED31104603F043FC10BD00680D
:102180004030018B0122D2031143018300207047AC
:1021900010B50446FF30FF300230C06903F072FC16
:1021A000A069002804D00348016906221143016197
:1021B00010BD000000ED00E0F8B5044600683E4D9B
:1021C000C00352D5E8690026C00007D4E969280495
:1021D0000143E961E969014001260091374801683E
:1021E000C90510D40168821511430160FEF7EEFFA6
:1021F000074604E0FEF7EAFFC01B642824D82F48F6
:102200000068C005F6D5286A03273F02384020D071
:102210006168394081421CD0286A2A6AB84301218A
:1022200009040A432A622A6A8A432A622862C0078A
:102230000FD0FEF7CBFF009008E0FEF7C7FF009934
:10224000411A1F48814201D90320F8BD286A80073E
:10225000F3D5286A6168B84308432862002E04D089
:10226000E969012000078143E9612078C00705D0B2
:10227000286BA168800880000843286320788006C6
:1022800005D5286B10218843E1680843286320683E
:10229000800305D5286B8021884361690843286342
:1022A0002088400505D5286B4021884321690843D3
:1022B00028630020F8BD00000010024000700040BC
:1022C00088130000F8B505464E480E460068C00762
:1022D000C00FB0420AD24B48016849084900314357
:1022E00001600068C007C00FB04270D12878464C2A
:1022F000800705D56068F0218843A96808436060BD
:102300002878C00753D06868012817D0022818D051
:10231000032819D021688907002958DA61688908DB
:10232000890001436160FEF751FF69680746012992
:1023300013D002291DD0032927D034E02168890356
:10234000EAE721688901E7E7616BC903E4E7FEF783
:102350003DFFC11B2D48814223D860680007800FD4
:102360000128F4D123E0FEF731FFC11B2748814249
:1023700017D860680007800F0228F4D117E0FEF735
:1023800025FFC11B214881420BD860680007800FE0
:102390000328F4D10BE0FEF719FFC11B1B48814253
:1023A00001D90320F8BD60680007800FF3D11548FC
:1023B0000168C907C90FB1420BD901684908490032
:1023C000314301600068C007C00FB04201D0012056
:1023D000F8BD2878400706D56068072109028843C0
:1023E000E9680843606000F02DF86168084A090652
:1023F000090F515CC840074908600020FFF7F8F852
:102400000020F8BD002002400010024088130000A8
:10241000CC6900085C01002001480068704700009A
:102420005C0100200448054900684968044A4905E0
:10243000490F515CC84070475C0100200010024009
:10244000DC69000830B516A30FCB89B06C460FC409
:1024500017A30FCB0FC41A494A680C201446044036
:102460001848042C05D0184B082C04D00C2C00D193
:10247000184609B030BD9402240F6D462C5DC96A20
:1024800004AD0907090FD203695C920F022A02D03A
:10249000032A00D11846FDF749FE6043E9E7000032
:1024A00002030405060708090A0B0C0D0E0F101095
:1024B0000102030405060708090A0B0C0D0E0F1094
:1024C0000010024000127A00006CDC02FEB50446E7
:1024D0000078F04EF04DC00748D068680007800FC4
:1024E00001281FD068680007800F022804D168689F
:1024F000C003800F022815D06168012919D001207E
:102500008004002901D0052917D02968B14329602A
:10251000296881432960606800281BD0FEF756FEB9
:10252000074613E02868800320D56068002876D02D
:102530001CE0286830432860EDE7296801432960E2
:10254000F7E7FEF743FEC01B642869D828688003BC
:10255000F7D50BE0FEF73AFE074604E0FEF736FE3D
:10256000C01B6428F1D828688003F7D4207880073E
:102570003ED568680007800F14D068680007800F98
:10258000022804D16868C003800F01280AD0E068DF
:10259000002828681DD0012108432860FEF716FE98
:1025A00007460BE0286880070BD5E068012836D184
:1025B00007E0FEF70BFEC01B0228C6D8286880077C
:1025C000F7D52868F82188432169C90008432860A5
:1025D0000EE0400840002860FEF7F8FD074604E0E2
:1025E000FEF7F4FDC01B0228AFD828688007F7D497
:1025F0002078000724D5E0690028686A11D00121FD
:1026000008436862FEF7E2FD074604E0FEF7DEFDE0
:10261000C01B022899D8686A8007F7D510E036E118
:10262000D1E0400840006862FEF7D0FD074604E0B4
:10263000FEF7CCFDC01B022887D8686A8007F7D454
:10264000207804274007002861DA00200190E8691B
:10265000C00008D4E969B8060143E961E9690140AD
:102660000120009101908D480168C90511D40168CD
:10267000821511430160FEF7A9FD009005E0FEF709
:10268000A5FD0099401A642897D884480068C005C1
:10269000F5D5A06801280AD0002801D0052811D05E
:1026A000286A400840002862286AB84302E0286A85
:1026B000012108432862A068002812D0FEF786FD99
:1026C00000900AE0286A38432862F0E7FEF77EFDB2
:1026D0000099411A7248814275D8286A8007F5D559
:1026E0000DE0FEF773FD009006E0FEF76FFD009928
:1026F000411A6B48814266D8286A8007F5D4019850
:10270000002804D0E969012000078143E9612078AD
:10271000C00635D5606901280CD0401D686B24D0F7
:1027200038436863686B400840006863FEF74EFDFD
:10273000074622E0686B38436863686B01210843F1
:102740006863FEF743FD074604E0FEF73FFDC01B4C
:10275000022838D8686B8007F7D5686BF821884362
:10276000A169C900084368630AE0B8436863F4E7F5
:10277000FEF72CFDC01B022825D8686B8007F7D414
:102780002078800637D568680007800F032813D0AB
:1027900068680007800F022804D16868C003800FB2
:1027A000032809D0206A0028686B16D0304368637C
:1027B000FEF70CFD06460CE0686BC0031BD5206AD3
:1027C000012864D117E05BE0FEF700FD801B0228C2
:1027D00056D8686BC003F7D50DE0B0436863FEF7C9
:1027E000F5FC064604E0FEF7F1FC801B022847D802
:1027F000686BC003F7D4606A002846D0696809078F
:10280000890F022943D0012636060228286805D000
:10281000B0432860FEF7DAFC044633E0B04328609A
:10282000FEF7D4FC074604E0FEF7D0FCC01B0228EC
:1028300026D828688001F7D4E86A216B00090001D6
:102840000843E862A16AE06A084369687B22D20310
:10285000914308436860286830432860FEF7B6FC5F
:10286000044604E0FEF7B2FC001B022808D82868E2
:102870008001F7D509E0FEF7A9FC001B022801D969
:102880000320FEBD28688001F5D40020FEBD012094
:10289000FEBD00000000010000100240007000407A
:1028A0008813000010B505490348897901224118B1
:1028B000AC3000F0E1F810BD0810002050000020FE
:1028C000F8B50268536891684C0605D4CC0703D06C
:1028D0005C0601D5C16C04E08C0704D51B0602D54B
:1028E000016D8847F8BDFF2361331942FAD00346D2
:1028F0004C064033002C09DA5C7F032CF2D0046EC6
:1029000004252C430466D468946800948D06012441
:10291000002D08DA056E2543056695680095156853
:102920004026B5431560C90506D5016E082211433E
:10293000016601688968009101684A68E025AA4338
:102940004A605C77FFF7AEFFF8BD0000F8B5040001
:1029500006D025464035687F0026002802D005E0D5
:102960000120F8BD2E77204600F058F802236B773F
:10297000206801684022914301600722E06812024A
:10298000904201D9002101E0012109030F273F02F4
:10299000B84202D0904200D0A662276B002F05D12A
:1029A000904201D9236301E001202063A26860689E
:1029B0006369104322691A4310430123A2695B0231
:1029C0001A401043E2691043226A1043A26A10437E
:1029D00022681060206B022804D1206802689B00E6
:1029E0001A430260626B606AA36910431B0C0427E0
:1029F000E2683B401A43104308432168486021685D
:102A0000E06A08612068C169034A1140C161266615
:102A1000012068770020F8BDFFF70000F0B50068DE
:102A2000134987B0884221D11248826981140A4330
:102A300082618069092708400590302000900120BC
:102A4000022503260024FF0602900195694603969D
:102A500004943846FEF70CFBC020009002946946AF
:102A60000396019504943846FEF702FB07B0F0BDCB
:102A70000030014000100240F0B5044613464034D7
:102A8000227F0025012A07D001222277667F0022BB
:102A9000012E03D0022564E00220F0BD002921D0E0
:102AA000002B1FD00426667702660164A380E380B2
:102AB00082638287C2874668F71FFD3F02D186681E
:102AC000002E11D001210723866A49031B028E4282
:102AD00012D101268664C6689E420ED8066B022E6D
:102AE00007D00AE001253CE022770A4600F0D0F842
:102AF000F0BD0226866400E0826402650126C76894
:102B000036039F4203685F6803D9B7435F60164B83
:102B100002E037435F60154BC36401268368F60308
:102B2000B34205D103681E680127BF03BE431E6080
:102B3000836A8B4208D103681E680D4F3E401E60B9
:102B400003681E680E431E6001684B6860263343AD
:102B50004B6000680168490603D4016840231943AB
:102B6000016022772846F0BD6D470008D94700086C
:102B7000FFDF0000F8B5424C0026207A401CC0B2AE
:102B80002072052804D1267240213E48FEF713FB2F
:102B9000A079401CA071A0793B4D022864D3F1209C
:102BA0006072A17969182039897F384A0323012787
:102BB000814211D1A17969182039C97F81420BD195
:102BC000A671E078012807D1206D904204DDE37002
:102BD0007D206770C000A063F2206072A17969183F
:102BE0002039897F814211D1A17969182039C97FA3
:102BF00081420BD1A671E078012807D1206D904267
:102C000004DDE3707D206770C000A063A079072811
:102C10002AD3FD206072A17969182039897F814209
:102C20000BD1A17969182039C97F814205D1A079DA
:102C3000C01EC0B203F0D0FCA671A079162813D331
:102C4000FE206072A17969182039897F81420BD1F9
:102C5000A17969182039C97F814205D1A079401E28
:102C6000C0B203F001FCA671A079602800D1A67162
:102C7000A079012229180448AC30FFF7FDFEF8BD09
:102C80005000002000040048081000200000FA4313
:102C9000F0B504464034267F0025012E0CD00126D5
:102CA0002677667F012E0ED04668F71FFD3F08D1BC
:102CB0008668002E05D101E00220F0BD667F042E5B
:102CC00001D0022560E0002916D0002A14D0002B84
:102CD00012D000268664876A01267603BC46B74276
:102CE0000ED1012686640726C7683602B74207D888
:102CF000066B022E02D003E0012545E00226866421
:102D0000667F042E01D0052666770026066681635D
:102D10008387C3870264A380E3800721C268090216
:102D20008A4203D91A4AC2641A4A02E01A4AC264A1
:102D30001A4A026501225203944508D103681E68AD
:102D4000174F3E401E6003681E6816431E60012236
:102D5000C36812038B4202D8E188022903D30168B9
:102D60004B68934302E001684B6813434B60016872
:102D70004A68E0231A434A6000680168490603D4A0
:102D80000168402211430160002020772846F0BDF1
:102D90004944000851450008B1440008A145000815
:102DA000FFDF00007047000004220449042808697E
:102DB00002D09043086170471043FBE700E000E059
:102DC00070470000094910B5401E884201D9012012
:102DD00010BD074C60610321081F00F061FF002057
:102DE000A06107202061002010BD0000FFFFFF0050
:102DF00000E000E010B5FFF7E3FF10BD704770473B
:102E000070B502462032137E012B1BD001231376AE
:102E100002245476046865687026B54365600468CA
:102E200065680E68354365600468A5688026B5430B
:102E3000A5600068846849680C438460537600206C
:102E4000107670BD022070BD70B5040005D0254617
:102E50002035687E002802D006E0012070BD0020E9
:102E60002876204600F00AF802206876211D2068A6
:102E700001F026FE01206876002070BD08B5154AD5
:102E800001681548914205D1C26981150A43C261A2
:102E9000C06908E0114A914208D1826901214904C0
:102EA0000A43826180690840009008BD0C4A914243
:102EB000FBD18269012189040A4382618069002271
:102EC0000840009002211620FEF7D4FB1620FEF7E2
:102ED000C7FB08BD00200040001002400044014034
:102EE000004801400268D36801210B43D3600068A9
:102EF00002680A43026000207047704770B50446BC
:102F0000006801690025C9438907002915DBC168EC
:102F1000C943890711D4E91E016101202076206888
:102F200080698007204602D0FFF7E7FF04E000F049
:102F3000C7F8204600F066F9257620680169C94384
:102F4000490717D4C168C943490713D40421C943A9
:102F5000016102202076206880698005800F20466C
:102F600002D0FFF7CAFF04E000F0AAF8204600F004
:102F700049F9257620680169C943090716D4C16853
:102F8000C943090712D40821C943016104202076EE
:102F90002068C0698007204602D0FFF7AEFF04E03A
:102FA00000F08EF8204600F02DF9257620680169A2
:102FB000C943C90617D4C168C943C90613D410212F
:102FC000C9430161082020762068C0698005800F10
:102FD000204602D0FFF791FF04E000F071F8204690
:102FE00000F010F9257620680169C943C90708D1A6
:102FF000C168C943C90704D1891E0161204600F098
:1030000025F920680169C943090609D4C168C94383
:10301000090605D48021C94301612046FFF7EEFE71
:1030200020680169C943490609D4C168C9434906F2
:1030300005D44021C9430161204600F011F9206800
:103040000169C943890609D4C168C943890605D401
:103050002021C94301612046FFF7D1FE70BD000069
:1030600070B500680121890700250224124E86B040
:10307000884211D1C013009009200194029469463E
:1030800003950494C006FDF7F3FF08200194029411
:1030900003950494009009E0084988420AD1302041
:1030A00000900120019403950294049069463046F3
:1030B000FDF7DEFF06B070BD0004004800040040CC
:1030C0007047F8B5064604462036307E0D46012886
:1030D0000DD001203076022070760427002A08D017
:1030E000042A16D0082A2AD00C2A4DD137E0022013
:1030F000F8BD206801F02EFD206881690822114387
:10310000816120688169B9438161206881692A6988
:1031100012E0206801F05AFD206882690121C9028D
:103120000A43826120688169012292029143816190
:10313000206881692A6912021143816124E02068B4
:1031400001F07EFD2068C26908210A43C26120683F
:10315000C169B943C1612068C1692A6912E0206868
:1031600001F0AAFD2068C1690122D2021143C161A8
:103170002068C269012189028A43C2612068C1694D
:103180002A6912021143C161012070760020307655
:10319000F8BD70B5040005D025462035687E0028AE
:1031A00002D006E0012070BD00202876204600F005
:1031B0000BF802206876211D206801F081FC0120B7
:1031C0006876002070BD000008B5012201689207F2
:1031D0000A48914206D1C16901221143C161C06907
:1031E000104008E0064A914206D1C26902210A4312
:1031F000C261C0690840009008BD00000010024094
:10320000000400407047000010B504460068012229
:1032100001F094FC0A482168814205D009488142A6
:1032200002D00948814204D1486C0122D2031043E4
:10323000486420680168012211430160002010BD2C
:10324000002C01400044014000480140034910B5F2
:10325000884201D101F060FD10BD0000081200207D
:103260007047704770B5040019D0242120466030A3
:1032700006464172206801684908490001602068DB
:10328000002505602068456020688560204600F0C4
:10329000ABF8E5667572B5723572002070BD01201D
:1032A00070BD704770B504460068C169C90707D092
:1032B0000168C90504D501210162E06E0843E0669A
:1032C0002068C16904228B070221002B06DA83687B
:1032D000DB0703D00162E06E1043E0662068C3693B
:1032E0005B0706D58368DB0703D00262E06E084304
:1032F000E0662068C169090707D58168C90704D05D
:1033000008210162E06E0843E0662068C169254635
:10331000C90220266035002909DA8168490206D5EC
:10332000F10301626E72AE722046FFF79AFF2068C9
:10333000C169890605D50068800602D5204601F0DE
:10334000DFFD2068C169090605D50068000602D5C1
:10335000204601F0AFFE2068C169490605D5006826
:10336000400602D5204601F0BEFDE06E002804D0E4
:103370006E72AE722046FFF794FF70BD70B5040008
:1033800005D025466035687A002802D006E0012085
:1033900070BD00202872204600F044F82420687296
:1033A00020680168490849000160204601F0EAFDF3
:1033B0000128EDD0606A002802D0204601F0CEFC42
:1033C000206841680922D2029143416020688168E7
:1033D0002A22914381602068016801221143016023
:1033E000204601F021FD70BD10B5044600680B4970
:1033F000884211D10A488169012292039143816177
:10340000032109204902C006FDF7BAFD206EFDF731
:1034100007FC1B20FEF71AF910BD00000038014020
:103420000010024030B5054600681A4987B088424E
:103430002DD119488269012189030A43826180697B
:1034400008400590032040020090022001900121D5
:10345000032003900291049109206946C006FDF7FC
:1034600007FE0F4C0D48206000211020A160606015
:1034700021616161A1618020E161E0602046FDF78A
:1034800023FD002801D0FDF756FB2C66656207B0CE
:1034900030BD000000380140001002401C00024016
:1034A000DC12002070B5034660339C7A202C49D191
:1034B00000290BD0002A09D0012584682D03AC42D5
:1034C00006D10669002E03D1CE0701D0012070BDC0
:1034D0001E7A012E36D001261E724165014640310A
:1034E0000A834A83FF22AC4204D10469002C12D122
:1034F000154A10E07F25002C08D0012212079442C3
:103500000AD10269002A04D03F2204E00469002C99
:1035100001D08D8300E08A830021C16622229A7245
:1035200002681468FF2501352C4314600268946812
:1035300034439460197200680168202211430160CD
:10354000002070BD022070BDFF01000010B50446D0
:1035500040210B48FDF72FFE0A490888401C82B223
:103560000520C0010A80824201D10020088006485F
:103570000988012241182046FFF794FF10BD000082
:103580000004004834000020640D0020F8B5054612
:1035900004466035687A202838D100290BD0002AEB
:1035A00009D00123A0681B03984206D12069002896
:1035B00003D1C80701D00120F8BD287A012825D001
:1035C0000120287220464030E164028242820026B7
:1035D000E66621206872236E0D489862236E0D48BE
:1035E000D862236E0C481863276813463A4628327F
:1035F000206EFDF793FC21684020086220688168F6
:103600008022114381602E720020F8BD0220F8BD97
:10361000AD4E0008DD4E0008894E000810B5024886
:1036200001F095FE10BD0000C00800207047FEE7C5
:1036300001688A69D243920701D400228A62006835
:103640008169C943C90703D081690122114381619E
:1036500070470000F7B5044600680E468069C04315
:10366000C0062CD420272546403520688069C043F9
:1036700080060FD5701CF8D0002E05D0FDF7A6FDF2
:103680000299401AB042F0D96F700020A8702870DB
:103690000320FEBD21681020C8612068C761204654
:1036A000FFF7C6FF20684168064A114041600420C8
:1036B00060646F700020A87028700120FEBD00209B
:1036C000FEBD000000E800FEF8B5044601201646E5
:1036D00040031D46DAB20090079F0023204600F009
:1036E0005DF83A462046069900F0B5F8002803D068
:1036F000606C04281BD018E02846F5B2012809D0D8
:103700002168300A88623A462046069900F0A3F8FC
:103710000028EDD1206885620097002240212046D4
:10372000069B00F04DF8002800D00320F8BD0120D2
:10373000F8BDF8B504460120164640031D46DAB22E
:10374000C3020090079F204600F028F83A46204622
:10375000069900F080F8002803D0606C04281BD084
:1037600018E02846F5B2012809D02168300A88629D
:103770003A462046069900F06EF80028EDD1206800
:1037800085620097002280212046069B00F018F8F1
:10379000002800D00320F8BD0120F8BD70B50568F1
:1037A000049C68688905890D1204044E114319436D
:1037B000304021430143696070BD0000009800FC67
:1037C000F8B51C4617460E46054611E0601C0FD0A2
:1037D000002C05D0FDF7FAFC0699401AA04207D943
:1037E0002020403568700020A87028700320F8BDA4
:1037F000286881693046884304D00020B842E5D06B
:103800000020F8BD0120F9E770B516460D460446C4
:103810001AE0324629462046FFF71CFF002801D057
:10382000012070BD002D04D0FDF7D0FC801BA84204
:103830000AD9616C2020014361644034607000202B
:10384000A0702070032070BD20688069C04380068E
:10385000DFD4002070BD70B516460D4604461CE04E
:10386000324629462046FFF7F5FE002801D0012008
:1038700070BD681C11D0002D04D0FDF7A7FC801B83
:10388000A8420AD9616C2020014361644034607011
:103890000020A0702070032070BD20688069C043A4
:1038A0008007DDD4002070BD38B59620FDF75DFBA4
:1038B000012307226B21D22000F04CF89620FDF75F
:1038C00054FB002306226B21D22000F043F8012094
:1038D000FDF74BFB0324234602226B21D2200094E8
:1038E00000F060F80120FDF740FB02200346009045
:1038F00004221C21D22000F055F80120FDF735FBF1
:10390000022304221B21D220009400F04BF8012056
:10391000FDF72BFB00200090032302221A21D22066
:1039200000F040F80120FDF720FB0F200090082355
:1039300007221921D22000F035F80120FDF715FBF0
:10394000012300223821D22000F004F80120FDF7E5
:103950000CFB38BDFFB585B0012403AD1E461746EC
:1039600001940095234602940D48069A0599FDF7A7
:10397000ADFC01206946B840097B002E01D0084308
:1039800001E08143084669460873019400950123CC
:1039900002940348069A0599FDF744FD09B0F0BD6D
:1039A00068100020FFB585B0012403AE1D46174600
:1039B00001940096234602940E48069A0599FDF755
:1039C00085FC2046A8407A1B401E521C0E99904050
:1039D00091406B461A7B014082430A431A7301945B
:1039E0000096012302940348069A0599FDF71AFDF3
:1039F00009B0F0BD6810002070B5254886B0426956
:103A0000012189050A43426142690A4005924269DF
:103A100049110A43426142690A40059242694900DC
:103A20000A43426140690125084000950590194804
:103A300009260024F6060190694602943046FDF7F7
:103A400017FB0820009002946946019503943046C4
:103A5000FDF70EFB2802694631C1694630460394E2
:103A6000FDF706FB0294039440200B4C009069463E
:103A700001952046FDF7FCFA002208213046FDF7AB
:103A80009EFB002240212046FDF799FB06B070BD49
:103A900000100240000011100004004810B50E484C
:103AA0000C4901600D494160002181600161416163
:103AB00081610122C161C2600162FDF7B3FB002890
:103AC00000D0FEE700210448FDF786FB002800D067
:103AD000FEE710BD00540040681000200B020000FB
:103AE00010B5002211460120FDF7C4FD0120FDF7AD
:103AF000B7FD002202210520FDF7BCFD0520FDF7E2
:103B0000AFFD002211460A20FDF7B4FD0A20FDF7A3
:103B1000A7FD002211461F20FDF7ACFD1F20FDF779
:103B20009FFD002202211B20FDF7A4FD1B20FDF7B5
:103B300097FD002201211920FDF79CFD1920FDF7BA
:103B40008FFD10BD10B50D480B490160002141608B
:103B5000816001614161816107220162120241625B
:103B6000C260816207220163C2624163FEF7EEFE1A
:103B7000002800D0FEE710BD00300140B410002046
:103B800010B5012119488AB089070160002401217C
:103B90008460416016490461C160FFF7FAFA0028A9
:103BA00000D0FEE7079407A910480894FFF728F90A
:103BB000002800D0FEE760200090019402940022CB
:103BC000694604940948FFF77CFA002800D0FEE714
:103BD000042269460548FFF774FA002800D0FEE782
:103BE0000248FFF73DFA0AB010BD0000181100208E
:103BF0005F09000010B51A488AB018490160002416
:103C000001218460416017490461C160FFF7C1FA76
:103C1000002800D0FEE7079407A911480894FFF791
:103C2000EFF8002800D0FEE7602000900194029495
:103C30000022694604940A48FFF743FA002800D09E
:103C4000FEE7042269460648FFF73BFA002800D049
:103C5000FEE70348FFF704FA0AB010BD0004004075
:103C6000541100205F09000010B5002207490848E0
:103C700001F050FD0749064801F029FF06490448B4
:103C800001F081FB024801F073FF10BD000000202D
:103C9000C0080020400200204000002070470000C3
:103CA0008307FF22DB0E9A408907090E99400028FE
:103CB0000BDA0007000F0838830808489B00181823
:103CC000C36993430B43C3617047830804489B0057
:103CD0001B181868904308431860704700ED00E017
:103CE00000E400E0F0B585B0044600206946888015
:103CF0002646203678E19A8917073F0F26D0B9006B
:103D00000291425A9A80998809047DD5BE490A4099
:103D10000299425238461C2148430519FF3509359E
:103D2000A87A0028206870D029788A00825A520424
:103D30006CD55022125ACB00B44912185918515A56
:103D40008905890D00917DD0EA88BDE09A89D20667
:103D500027D40188AE4A25461140018020685021B1
:103D6000095A283508182978CA00A8495118405A14
:103D70008005800D2064A16B0818A06300212046F7
:103D8000FDF799FC30790028B4D068690028B1D1DA
:103D900030798021084321684031888100203071CA
:103DA00022E12546FF35028809359A809B881B054C
:103DB00019D5098A09182878C2009448001D1018DE
:103DC000085A294683059B0DAB61AA88E431206817
:103DD00000F024F920688C4A0188114001802046B7
:103DE000FEF7C2F900E1694689880904D8D58649F9
:103DF000864F0A40028020685021095A3F1D091849
:103E00002878C000C01902E085E03DE04FE0085A84
:103E100083059B0DAB6108D0AA882969206800F052
:103E2000FDF8A96928694018286100212046FDF79E
:103E30004EFC206801464030008A4018C119E868ED
:103E40003E2800E044E00AD9C202120CC00601D1AB
:103E5000521E92B290020122D203104306E0C20326
:103E6000120CC00701D0521C92B290020880216847
:103E7000684A088810400122120350405200504006
:103E8000654A10430880AFE05021095A0A18297882
:103E9000CB005E49091D5918515A8905890D0091B9
:103EA00021D0AA882969009B00F0B8F81BE05022B5
:103EB000CB00125A55491218091D5918515A890533
:103EC000890D009104D02A892969009B00F0A6F889
:103ED000297820688A004E4B815A803319404E4B16
:103EE000403319438152A96900980818A8612969CB
:103EF00000980A182A616B69002B03D0E9680098C2
:103F0000814204D929782046FDF7E1FB03E02978B6
:103F10002046FDF755FE68468088000664D51C20C3
:103F20004743206802993A4A415A3D191140029A82
:103F300028358152A87A0028206811D029788A0073
:103F4000825C52061ED55022125AC90012182F4800
:103F50000818105A83059B0DAB6124D0EA881EE037
:103F60005021095A09182878C20028481018085A00
:103F700083059B0DAB6121D0AA882969206800F0D8
:103F80005CF81BE05022125AC90012181F48001D8D
:103F90000818105A83059B0DAB6104D02A89296942
:103FA000206800F04AF8287822688000184B115ADF
:103FB00080331940174BF1331943115220685021B7
:103FC000095A09182878C20010481018085A8005A4
:103FD000800DA86129690A182A616B692978002B6C
:103FE00020460DD0FDF7D2FE2068014640318A8878
:103FF0006B469A81120400D57DE6002005B0F0BD25
:10400000FDF759FBF0E700008F0F000002040000ED
:104010000F8F00008FBF0000808000001018012269
:104020005B1C92025B088018002B05D002880A8076
:10403000801C891C5B1EF9D17047101801225B1C83
:10404000920210B55B088018002B08D04A780C78D3
:10405000120222430280801C891C5B1EF6D110BD17
:10406000FEB5914C606D0290A06D0190E06D0090E6
:104070002E20205EFCF75AF98C4E3146FCF7CFF823
:1040800025468B4F0146803538462A6F00F08EFC5E
:1040900028673020205EFCF749F93146FCF7BFF86D
:1040A000014638466A6F00F081FC68678149E86B19
:1040B000FCF7B5F8616BFCF7B2F87F4A002102F01B
:1040C000F7F86864226D01467C4800F06FFC2065BB
:1040D0001420205EFCF72AF97949FCF7DDF8064642
:1040E0007849286CFCF79BF83146FCF790F860653E
:1040F0007549A86BFCF793F8296FFCF788F8A06561
:104100007249686BFCF78BF8696FFCF784F8E0651F
:10411000206D6F4EB04224DD3146606DFCF7BCF877
:10412000216EFCF723F86B4F6B493A4602F0C0F85A
:1041300020663146A06DFCF7AFF8616EFCF716F80B
:104140003A46654902F0B4F860663146E06DFCF726
:10415000A3F8A16EFCF70AF83A465F4902F0A8F806
:10416000A0660299606DFCF752F83146FCF757F8EB
:10417000E0660199A06DFCF74AF83146FCF74FF86C
:1041800001465648FCF75AFB20670099E06DFCF7A2
:104190003EF83146FCF743F8014650481438FCF726
:1041A0004DFB6067E16E686AFCF739F84C4F4D498A
:1041B0003A4602F07DF8216E0646286AFCF72FF891
:1041C0000090616DE869FCF72AF80099FBF7CEFFD3
:1041D0003146FBF7CBFFA067216FA869FCF71FF8FA
:1041E0003A46404902F064F8616E06466869FCF799
:1041F00016F80090A16D2869FCF711F80099FBF7FB
:10420000B5FF3146FBF7B2FFE067616FE868FCF786
:1042100006F83A46334902F04BF8A16E0646A86804
:10422000FBF7FDFFE16D07466868FBF7F8FF3946CD
:10423000FBF79CFF3146FBF799FF2860E16F206D8B
:10424000FBF794FF2968FBF791FFA16FFBF7DFFFF6
:10425000FCF777F86084E16F206DFBF787FF296832
:10426000FBF7D5FFA16FFBF781FFFCF76AF8A0848D
:10427000E16F206DFBF7CBFF2968FBF7C8FFA16F4B
:10428000FBF7C5FFFCF75DF8E084E16F206DFBF7FD
:10429000BEFF2968FBF76AFFA16FFBF767FFFCF71A
:1042A00050F82085FEBD000050000020CDCCCC3D54
:1042B0003333733F0000A041008009459A99193FAC
:1042C00033338341000040C09A9999BE9A99993E30
:1042D0000000FA430000C8420000C8C25812002083
:1042E0000080BB440080BBC4F0B58BB000200590BB
:1042F0000390049002200E2106AC0191029001234C
:104300003B220094D2214648FCF7E0FF002003A99D
:104310004200A35C15196D781B025B19401C8B527F
:104320000328F5DB04204200A35C15196D781B02FD
:1043300052185B19403A401CD3870728F3DB6946C3
:104340000C23384CCB5E63810E228A5EA281088AE0
:10435000E0811220085E142620828E5F6682162578
:104360004D5FA5823049E163216D304FB94201DADA
:104370007902E163E178002910D0E18A401A2082B5
:10438000208B301A6082608B281AA082A08B181AAA
:104390006081E08B101AA0810BB0F0BDFBF7C6FF67
:1043A000204D01468035AA6C214E304600F0FEFAC1
:1043B000A8641220205EFBF7B9FFEA6C0146304684
:1043C00000F0F4FAE8641420205EFBF7AFFF2A6DDA
:1043D0000146304600F0EAFA28650A20205EFBF725
:1043E000A5FF6A6D0146304600F0E0FA68650C20D2
:1043F000205EFBF79BFFAA6D0146304600F0D6FA1F
:10440000A8650E20205EFBF791FF0B21C943FBF747
:1044100081FF2A6B0146074800F0C8FA2863BBE712
:1044200068100020500000209A99993E0000204218
:104430000AD7A33BCDCCCC3D10B50248FEF740FADD
:1044400010BD0000B410002010B50168C968026CEE
:104450001180016C891C016401464031CA88521EDA
:10446000CA80C988002906D10122816A520391427B
:1044700002D10749C16410BD01684A6840239A43CC
:104480004A60C18F0029F6D100F0BCF810BD0000D1
:104490009544000808B50168CA686B461A801A88F6
:1044A0004A6840239A434A6000F0ACF808BD000017
:1044B00070B501464031CD88012424030368026CA5
:1044C000012D0FD9DB681380026C921C0264CA882C
:1044D000921ECA80CA88012A0BD1026853682343FE
:1044E000536006E01D7B531C03641570CA88521E7E
:1044F000CA80C98800290AD10122816A52039142E7
:1045000001684A6804D122434A600649C16470BD0B
:1045100040239A434A60C18F0029F8D100F072F815
:1045200070BD00002945000808B501680B7B6A468C
:1045300013701278826C521E826408D14A6840233C
:104540009A434A60C18F002901D100F05BF808BD91
:1045500010B5816B02680988D160816B891C816309
:10456000C18F491EC187C18F00290ED10123826AE4
:104570005B0380219A42026808D113684C012343EF
:104580001360006842688A43426010BD53688B43E1
:1045900053604621095A0029F7D100F033F810BDC5
:1045A00010B5C38F0268816B022B07D30988D160D5
:1045B000816B891C8163C18F891E05E04B1C83635D
:1045C00009781173C18F491EC187C18F00290ED18F
:1045D0000123826A5B0380219A42026808D1136832
:1045E0004C0123431360006842688A43426010BD57
:1045F00053688B4353604621095A0029F7D100F0D4
:1046000001F810BD70B50446006841682025A94333
:1046100041603221204600F090F8002802D0206E40
:1046200028432066226890680121C043C3062046C3
:104630004030002B07DB4177206E022108432066C3
:104640000A48906003E0226E002A04D04177204699
:10465000FEF728F970BD427F4177042A204602D038
:10466000FEF7A0FB70BDFEF785FA70BDEFFF0000FE
:1046700010B50446006841686022914341603221D0
:10468000204600F023F8002803D0206E20210843A4
:10469000206601215D20015520688168C943C90653
:1046A00006D4216E0222114321660749816002E08F
:1046B000206E002803D02046FEF7F4F810BD2046F7
:1046C000FEF758FA10BD0000EFFF0000F3B50446F6
:1046D0004068FF2501260535F60381B0A8420AD1BE
:1046E000A068B04202D07111884204D120680168EC
:1046F000402291430160002280212046029B00F06D
:10470000F3F82027002811D16068A84213D1A068CF
:10471000B04202D0790188420DD103210022490222
:104720002046029B00F08EF8002804D0206E38430B
:1047300020660320FEBD0020FEBD70B50E460B4670
:10474000032104460022C90200F07CF8202500283D
:1047500007D1334600228021204600F0C5F800280A
:1047600003D0206E28432066032070BD70B5016819
:10477000C968026C1180016C891C016401464031DA
:10478000CA88521ECA80CB8801225203012B07D14E
:10479000836A934204D103681C6855102C431C6043
:1047A000C988002904D1816A914202D10249C164B9
:1047B00070BDFFF75DFF70BDBD47000808B501681B
:1047C000CA686B461A801A884A6860239A434A600E
:1047D000FFF74EFF08BD000070B501680B7B016C50
:1047E0004A1C02640B7001464031CA88521ECA80BE
:1047F000CB8801225203012B07D1836A934204D153
:1048000003681C6855102C431C60C988002904D11A
:10481000816A914202D10349C16470BDFFF728FF4C
:1048200070BD00002948000808B501680A7B694688
:104830000A700978816C491E816401D1FFF718FF65
:1048400008BD0000FEB51D4617460E460446FCF79F
:10485000BDFC00903EE0032149028E4205D1002FAD
:1048600003D1017B684601710079681C32D0002DAC
:1048700005D0FCF7ABFC0099401AA8422AD3206867
:104880004168E022914341606068C11FFD390CD14D
:104890000121A068C903884202D04911884204D18D
:1048A000206801684022914301600120A16A400311
:1048B000814208D121680A680A4B1A400A602168BF
:1048C0000A6802430A6001204034607700202077A4
:1048D0000320FEBD206881683140B942BBD1002071
:1048E000FEBD0000FFDF0000F8B51D4616460F466E
:1048F0000446FCF76BFC009034E0681C32D0002DBD
:1049000005D0FCF763FC0099401AA8422AD320681E
:104910004168E022914341606068C11FFD390CD1BC
:104920000121A068C903884202D04911884204D1FC
:10493000206801684022914301600120A16A400380
:10494000814208D121680A680A4B1A400A6021682E
:104950000A6802430A600120403460770020207713
:104960000320F8BD206880683840B042C5D10020DF
:10497000F8BD0000FFDF000010B50B48C07800282C
:1049800005D0012806D0022807D0032808D001F05E
:1049900011FC10BD01F0EEFF10BDFCF7CDF810BD0D
:1049A000FCF7D8F810BD00005000002070B5154687
:1049B0000A46044629461046FBF729FC2146FBF728
:1049C0002EFC2946FBF7D2FB70BD10B5FCF7F8FDB5
:1049D000FEF710FA10BD000010B598B0222000902C
:1049E0000120039008900024102009940490684648
:1049F000FDF76CFD002800D0FEE707201390032090
:104A0000149015940121169413A8FDF75BFC00285F
:104A100000D0FEE70E4812940D900F9410940DA84C
:104A2000FDF7CAFB002800D0FEE7FDF7F5FC7D216D
:104A3000C900FBF77BFBFEF7C5F90420FEF7B4F9CC
:104A400000221146501EFCF715FE18B010BD0000E4
:104A500021000200134801680122114301604168EE
:104A6000114A114041600168104A1140016001681B
:104A7000012292049143016041683F221204914354
:104A80004160C16A09090901C162016BFF22D43288
:104A900091430163416B49084900416300218160F2
:104AA00070470000001002400CB8FF08FFFFF6FE40
:104AB00010B50248FEF722FA10BD000008120020CF
:104AC000F0B50268184B0124A407184D984203D092
:104AD000A04201D0A84203D17026B2434E683243AF
:104AE000134E144F98420AD0A04208D0A84206D0D4
:104AF000114CA04203D0B04201D0B84204D10324EB
:104B00002402A243CC68224302608A68C2620A6817
:104B10008262984203D0B04201D0B84201D1096903
:104B2000016301214161F0BD002C014000040040FF
:104B300000440140004801400020004010B501231E
:104B4000046A8B409C430462036A8A4013430362F5
:104B500010BD0000F0B5026A520852000262056AF8
:104B6000436882697024A24392080C68920014433F
:104B7000022295438A68134E2A43114DA84204D05D
:104B8000B04202D0104FB84206D10827BA43CF68CE
:104B90001743042297433A46A84204D0B04202D0B9
:104BA000094DA84206D103252D02AB434D691D4393
:104BB0008B692B4343608461496841630262F0BDA5
:104BC000002C0140004401400048014070B5026AD9
:104BD00010239A430262046A4368826973252D0296
:104BE000AA430D682D021543202294438A681201BE
:104BF0002243104CA04208D11446CA688026B44310
:104C0000120122434024A24305E00B4CA04202D0F3
:104C10000A4CA04208D10324A402A3434C69A40077
:104C20001C438B699B002343436085614968816312
:104C3000026270BD002C0140004401400048014068
:104C400070B5026AFF2301339A430262046A436823
:104C5000C2697025AA4392080D689200154301228B
:104C6000520294438A6812022243104CA04207D198
:104C7000C414A243CC68240222430615B24305E0C3
:104C80000B4CA04202D00B4CA04208D103242403B9
:104C9000A3434C6924011C438B691B0123434360DC
:104CA000C5614968C163026270BD0000002C01400B
:104CB000004401400048014030B5026A01231B0353
:104CC0009A430262056A4268C36973242402A343BB
:104CD0000C6824021C4301235B039D438B681B0368
:104CE0002B430A4DA84205D0094DA84202D0094DD8
:104CF000A84205D10125AD03AA434D69AD012A4360
:104D00004260C46149680164036230BD002C014007
:104D1000004401400048014070B50E4C6088218875
:104D2000884215D00526F601884201D9351A00E0DF
:104D30000D1A094AA9B21018FBF73AFE002807D14C
:104D40006088401980B26080B04201D1002060804C
:104D500070BD000034000020640D002010B5818C6F
:104D6000C90707D001684A6801235B049A43836A34
:104D70001A434A60818C890707D501684A68012374
:104D80001B049A43C36A1A434A60818C490707D5BA
:104D900001684A6801239B049A43036B1A434A60E3
:104DA000818C090707D501684A680123DB039A4310
:104DB000436B1A434A60818CC90607D50268916823
:104DC00001231B039943836B19439160818C8906EE
:104DD00007D501688A6801235B039A43C36B1A43B2
:104DE0008A60818C490612D503685A680121090539
:104DF000046C8A4322435A60026C8A4207D10268DB
:104E0000516803235B059943436C19435160818CBE
:104E1000090607D501684A680123DB04806C9A43C0
:104E200002434A6010BD000070B500250446C56607
:104E30000068134988421BD10068124E000708D54C
:104E40000121334600224905204600F066F900287A
:104E50000CD12068006840070AD5012133460022A2
:104E60008905204600F059F9002801D0032070BDC3
:104E7000202060346072A0722572002070BD000096
:104E800000380140E803000010B5406A00220146E6
:104E900040314A834A82202220314A728A72C16E8E
:104EA00010221143C166FEF7FCF910BD10B5014692
:104EB0000968406A096889060DD4002252210A5205
:104EC00001688A6880239A438A60006801684022EA
:104ED0001143016010BDFEF7A1FB10BD10B5406A83
:104EE000FEF7A4FB10BD10B501680A6840239A4381
:104EF0000A60202269210A54FEF790FB002010BDB1
:104F000070B50246403203466033948B9D7A016847
:104F1000222D05D08869082210438861022070BDC7
:104F2000012685683603B54202D10569002D0CD0F3
:104F30008D8C416D25404C1C44650D70518B491E74
:104F40000904090C518308D019E0898C456D214072
:104F50002980416D891C4165F0E7026814682021B1
:104F60008C43146002681468CD00AC43146002687E
:104F700094686408640094609972FEF7E7FA002070
:104F800070BD0000F8B504462369A268E5691A43BC
:104F9000636910202B43002125681A432B680E46B5
:104FA0003E4F3B4013432B6023685A6803252D0373
:104FB000AA43E5682A435A60236AA26925681A430E
:104FC000AB680B273F02BB431343AB60344A2568F1
:104FD000954210D1334A126B9207920F0ED0012ADC
:104FE00005D0022A05D0032A09D1022007E00420B7
:104FF00005E0082003E02C4A954200D10020012260
:10500000E369D203934224D100280CD002280DD0AA
:10501000042813D0082817D001260A09120108070E
:10502000400F10432FE0FDF7FDF909E061681F4ACA
:1050300048088018FBF77AF881B2EEE7FDF702FA2C
:10504000616840004A08F4E76168012248081204D8
:10505000EFE7002808D0022809D004280BD0082840
:1050600014D001263046F8BDFDF7DCF905E0616893
:105070000F4A48080CE0FDF7E5F961684A08801816
:10508000FBF754F880B22168C860EBE76168480814
:105090008018FBF74BF880B2E860E3E7F369FFEFB5
:1050A0000038014000100240004400400024F40099
:1050B00000127A006921095C212901D00220704781
:1050C00002464032518A002912D0012381681B0315
:1050D000994202D10169002915D0C16C4B1CC364EF
:1050E000006809780185508A401E50820020704770
:1050F00001680A6880239A430A60006801684022B8
:1051000011430160F2E7C16C03680988C905C90D44
:105110001985C16C891CC164E5E7F8B51E461546C2
:105120000F460446FCF752F82946254660350090A4
:1051300000291AD043E0701C17D0002E05D0FCF7D0
:1051400045F80099401AB0420FD9206802688021C2
:105150008A43026021680A68202082430A6021682D
:105160000B68C20093430B601EE02068C16938469B
:105170008843E0D128E0701C21D0002E05D0FCF738
:1051800025F80099401AB04219D920680168802298
:105190009143016021680A68202082430A602168E7
:1051A0000A68C3009A430A6021688A68520852005C
:1051B0008A606872A872002028720320F8BD2068F7
:1051C000C16938468843D6D00020F8BD10B50248E2
:1051D000FEF768F810BD00006C120020FF30FF30B1
:1051E00002308069002806D0FF300021FF300230F5
:1051F0004161084670470220704770B5C21DFF32FA
:10520000FA321546946900F045FBE11DFF31FA3191
:10521000C860A869002808D04868E969CA6883217D
:10522000890061189047002070BD022070BD70B5E4
:1052300004460025812100F08FFA0121204600F06C
:105240008BFA8221204600F087FAFF34FF340234C3
:10525000A069002807D0E06940688047A06900F095
:1052600095FD0020A061284670BDFF3010B5FF30CD
:105270001A300AC8002B0AD0CC1DFF34FA3420782B
:10528000FF2804D09B6862789847FF202070002098
:1052900010BD00000A21018000487047680100200D
:1052A0004321018000487047B8010020432101805C
:1052B0000048704774010020432101800048704776
:1052C000FC010020F8B50446007C0126002576028A
:1052D000002830D0402302228121204600F038FBF4
:1052E000402302220121204600F032FB0823032242
:1052F0008221204600F02CFB8720800000F048FD32
:10530000E11DFF31FA31886100281CD00746C869C9
:1053100000688047FF370020FF3702377861B861A7
:10532000207C7A68002810D040230121204600F01C
:105330001BFB2846F8BD334602228121204600F09F
:1053400007FB3346CDE70125F3E73346EDE710B51C
:105350004321C9000958002913D0027C002A09D032
:10536000FF31FF3102314A684023012100F0FCFA8D
:10537000002010BDFF31FF31023101235B024A687A
:10538000F3E7022010BD02460220002904D0FF32BC
:10539000FF3202320020D1617047FF30FF3002300F
:1053A0008069FF30FF300230416000207047FF30DD
:1053B000FF3002308069FF30FF30023002618160CF
:1053C0000020704770B50C46C11D0546FF31FA310B
:1053D000207860228E69024022D0202A28D1E288DB
:1053E000002A16D0000607D5C96960788B68314657
:1053F0009847E288314618E0F01DFF306178FA30B6
:105400000170A1794170E2883146284600F050F8D9
:105410000EE0C96960788B6800222146984707E052
:1054200060780A2804D103490122284600F05CF87C
:10543000002070BD6401002010B54321C900095847
:10544000002911D0FF31FF3102314A69002A01D011
:10545000012010BD01224A610A8A93B28A68812123
:1054600000F018FB002010BD022010BD10B58522F1
:105470009200125852689047002010BD134610B594
:105480000A46002100F070FA002010BD134610B546
:105490000A46002100F0FEFA002010BD10B50446B7
:1054A000802100F0DDFA0021204600F0D9FA10BD7D
:1054B00010B5FF230324F5331C50C31DF9339A6044
:1054C000DA6013460A46002100F04EFA002010BDB3
:1054D00010B5FF210522F5310A5000231A4619465E
:1054E00000F042FA002010BD10B5FF230224F5336E
:1054F0001C5082611346C2610A46002100F0CAFABC
:10550000002010BD10B5FF210422F5310A50002300
:105510001A46194600F0BEFA002010BD10B50A4622
:10552000024903A000F0D4F8004810BDC0060020D6
:1055300043444320436F6E66696700001220088071
:10554000004870472000002010B50A46024903A019
:1055500000F0BEF8004810BDC006002043444320C0
:10556000496E7465726661636500000004200880FE
:10557000004870471C00002010B50A46024903A0ED
:1055800000F0A6F8004810BDC006002053544D6935
:1055900063726F656C656374726F6E69637300002C
:1055A00010B50A46024903A000F092F8004810BD69
:1055B000C006002053544D33322056697274756111
:1055C0006C20436F6D506F727400000010B50A4676
:1055D000024903A000F07CF8004810BDC00600207E
:1055E0003030303030303030303031410000000069
:1055F000F8B50D4604464988FF300A0AFF300230EC
:10560000130000F0D1FB084905091649493E4649F7
:105610000069237C02682AE0217C02264069002977
:1056200005D0C16A684688470146467040E0816AF5
:10563000F8E7C9B20B0000F0B7FB0604080F131718
:105640001E2F0069227C436802E00069227C836887
:1056500069461046984712E00069227CC368F7E764
:105660000069227C0369F3E70069237C426969468B
:105670001846904703E00069227C8369E8E7014609
:1056800016E0217C002907D14069416B68468847B4
:10569000F5E7217C002904D029462046FFF7FEFECD
:1056A000F8BD4069016B6846884707220146427091
:1056B000684600880028F3D0EA88002AF0D08242A9
:1056C00000D90246684602802046FFF70DFFF8BD6C
:1056D00070B5002300281CD00446002502E06D1C94
:1056E000EDB2641C2678002EF9D16C00A41C148045
:1056F000CC5403225B1CCA5400245B1C06E0CA5431
:105700005B1CDAB28C54521CD3B2401C0278002AC3
:10571000F5D170BD10B5002813D0C31DFF33FA3387
:105720005C69002C01D000245C61002900D0196163
:10573000FF210123FD310B54027000F0B3F800206B
:1057400010BD022010BDFF3010B5FF300230006ADE
:10575000FCF780F8002010BDFF3010B5FF3002309C
:10576000006AFBF7C3FF002010BDFEB50446FF3002
:10577000E51DE130FF35FA3513460190002908D0C8
:1057800068694269002A49D00198007F032843D004
:1057900044E02646FF3681362046716F14300229D8
:1057A00034D1C26881680092914207D9891A816018
:1057B0008AB219462046FFF769FE13E04068114699
:1057C0000746FAF7B3FC002913D10098874210D39B
:1057D000B06F87420DD2002211462046FFF756FED9
:1057E0000020B06700231A461946204600F0BCF896
:1057F0000CE06869C168002905D00198007F032882
:1058000001D1204688472046FFF762FE287801280C
:1058100004D10020287001E0204690470020FEBD02
:1058200070B50546FF35E1352B4620331646044654
:10583000002907D058698269002A29D0287F0328C7
:1058400024D025E0FF21F531E01D0959FD30032961
:105850001ED18268C1688A420BD9511A8160C06822
:10586000814200D301468AB231462046FFF706FE48
:105870000EE058690169002904D0287F032801D16E
:10588000204688472046FFF73DFE01E0204690472E
:10589000002070BDFF3010B5FF300230006AFCF709
:1058A00033F810BD10B51E49C41DC861FF341D4931
:1058B000FA341D4821620860022208208A6048608C
:1058C00003200A61C86000208861C8610846FCF7AF
:1058D000A9FB002801D0FBF72EF90022182311465E
:1058E000206AFBF7CBFE582300228021206AFBF7B9
:1058F000C5FEC02300228121206AFBF7BFFEFF23E3
:10590000113300220121206AFBF7B8FEFF23013387
:1059100000228221206AFBF7B1FE002010BD0000AA
:10592000A0060020A0040020005C0040FF30CA094F
:10593000FF3049060230490E1C23006A59430818FB
:10594000002A01D0203001E0FF300130807A70471A
:1059500010B5FF301C46FF3002301346006A224665
:10596000FBF7DCFF002010BDFF3010B5FF30023028
:10597000006AFCF725F9002010BD70B5002204462E
:1059800040231146FFF7E4FF4025FF201130055169
:105990002B46002280212046FFF7DAFFFF2001215D
:1059A000FD3025620155E01DFF30FA308169002984
:1059B00004D040692179426820469047002070BD9C
:1059C000FF30E130417F01770020704710B5FF21A3
:1059D000FD31095C032906D1852189000958C9696F
:1059E000002900D08847002010BD017400207047B6
:1059F000FF3010B5FF300230006AFCF79FFB00203B
:105A000010BD70B504464120C0002018054600F0C6
:105A10004AF82146FF3181310122084680304A6729
:105A2000C2898A67007AC106C90E0AD001290DD041
:105A3000022910D0C109C901204600F011F8002048
:105A400070BD2946204600F098F8F8E72946204620
:105A500000F07FF9F3E72946204600F005F9EEE76C
:105A6000FF3010B5FF300230006AFCF745F9002026
:105A700010BDFF3010B5FF300230006AFCF77FFB2D
:105A8000002010BDFF30E130017F41770421017714
:105A900000207047FF3010B5FF300230006AFCF77D
:105AA00075F9002010BD0A7802704A784270CB78F0
:105AB0008A781B02D21842804B790A791B02D218CD
:105AC00082808A79C97909025118C18070470246DB
:105AD0000020002904D0FF32FF32023251617047AA
